{
  "contractName": "DipWhitelistedCrowdsale",
  "abi": [
    {
      "constant": true,
      "inputs": [],
      "name": "owner",
      "outputs": [
        {
          "name": "",
          "type": "address"
        }
      ],
      "payable": false,
      "stateMutability": "view",
      "type": "function"
    },
    {
      "constant": true,
      "inputs": [
        {
          "name": "",
          "type": "address"
        }
      ],
      "name": "contributorList",
      "outputs": [
        {
          "name": "allowance",
          "type": "uint256"
        },
        {
          "name": "contributionAmount",
          "type": "uint256"
        },
        {
          "name": "tokensIssued",
          "type": "uint256"
        },
        {
          "name": "airdrop",
          "type": "bool"
        },
        {
          "name": "bonus",
          "type": "uint256"
        },
        {
          "name": "lockupPeriod",
          "type": "uint256"
        }
      ],
      "payable": false,
      "stateMutability": "view",
      "type": "function"
    },
    {
      "constant": false,
      "inputs": [
        {
          "name": "newOwner",
          "type": "address"
        }
      ],
      "name": "transferOwnership",
      "outputs": [],
      "payable": false,
      "stateMutability": "nonpayable",
      "type": "function"
    },
    {
      "anonymous": false,
      "inputs": [
        {
          "indexed": true,
          "name": "_contributor",
          "type": "address"
        },
        {
          "indexed": false,
          "name": "_allowance",
          "type": "uint256"
        },
        {
          "indexed": false,
          "name": "_airdrop",
          "type": "bool"
        },
        {
          "indexed": false,
          "name": "_bonus",
          "type": "uint256"
        },
        {
          "indexed": false,
          "name": "_lockupPeriod",
          "type": "uint256"
        }
      ],
      "name": "Whitelisted",
      "type": "event"
    },
    {
      "anonymous": false,
      "inputs": [
        {
          "indexed": true,
          "name": "previousOwner",
          "type": "address"
        },
        {
          "indexed": true,
          "name": "newOwner",
          "type": "address"
        }
      ],
      "name": "OwnershipTransferred",
      "type": "event"
    },
    {
      "constant": false,
      "inputs": [
        {
          "name": "_contributorAddresses",
          "type": "address[]"
        },
        {
          "name": "_contributorAllowance",
          "type": "uint256[]"
        },
        {
          "name": "_airdrop",
          "type": "bool[]"
        },
        {
          "name": "_bonus",
          "type": "uint256[]"
        },
        {
          "name": "_lockupPeriod",
          "type": "uint256[]"
        }
      ],
      "name": "editContributors",
      "outputs": [],
      "payable": false,
      "stateMutability": "nonpayable",
      "type": "function"
    }
  ],
  "bytecode": "0x608060405260008054600160a060020a0319163317905561063d806100256000396000f3006080604052600436106100615763ffffffff7c01000000000000000000000000000000000000000000000000000000006000350416638da5cb5b811461006657806392acb4d614610097578063b70949c9146100eb578063f2fde38b14610226575b600080fd5b34801561007257600080fd5b5061007b610247565b60408051600160a060020a039092168252519081900360200190f35b3480156100a357600080fd5b506100b8600160a060020a0360043516610256565b604080519687526020870195909552858501939093529015156060850152608084015260a0830152519081900360c00190f35b3480156100f757600080fd5b506040805160206004803580820135838102808601850190965280855261022495369593946024949385019291829185019084908082843750506040805187358901803560208181028481018201909552818452989b9a998901989297509082019550935083925085019084908082843750506040805187358901803560208181028481018201909552818452989b9a998901989297509082019550935083925085019084908082843750506040805187358901803560208181028481018201909552818452989b9a998901989297509082019550935083925085019084908082843750506040805187358901803560208181028481018201909552818452989b9a9989019892975090820195509350839250850190849080828437509497506102909650505050505050565b005b34801561023257600080fd5b50610224600160a060020a0360043516610567565b600054600160a060020a031681565b60016020819052600091825260409091208054918101546002820154600383015460048401546005909401549293919260ff909116919086565b600080548190600160a060020a031633146102aa57600080fd5b855187511480156102bc575084518751145b80156102c9575083518751145b80156102d6575082518751145b15156102e157600080fd5b600091505b865182101561055e5783828151811015156102fd57fe5b906020019060200201516000148061032c5750838281518110151561031e57fe5b906020019060200201516004145b8061034e5750838281518110151561034057fe5b90602001906020020151600a145b151561035957600080fd5b6002838381518110151561036957fe5b60209081029091010151111561037e57600080fd5b868281518110151561038c57fe5b90602001906020020151905085828151811015156103a657fe5b6020908102909101810151600160a060020a0383166000908152600190925260409091205584518590839081106103d957fe5b602090810291909101810151600160a060020a038316600090815260019092526040909120600301805460ff1916911515919091179055835184908390811061041e57fe5b6020908102909101810151600160a060020a03831660009081526001909252604090912060040155825183908390811061045457fe5b6020908102909101810151600160a060020a03831660009081526001909252604090912060050155865187908390811061048a57fe5b90602001906020020151600160a060020a03167f77c09a19fcd5375bb199fef6f7ff5c86bb393ad9b0574d097475dbec3263d43d87848151811015156104cc57fe5b9060200190602002015187858151811015156104e457fe5b9060200190602002015187868151811015156104fc57fe5b90602001906020020151878781518110151561051457fe5b60209081029091018101516040805195865293151591850191909152838301919091526060830152519081900360800190a261055782600163ffffffff6105fb16565b91506102e6565b50505050505050565b600054600160a060020a0316331461057e57600080fd5b600160a060020a038116151561059357600080fd5b60008054604051600160a060020a03808516939216917f8be0079c531659141344cd1fd0a4f28419497f9722a3daafe3b4186f6b6457e091a36000805473ffffffffffffffffffffffffffffffffffffffff1916600160a060020a0392909216919091179055565b60008282018381101561060a57fe5b93925050505600a165627a7a72305820969409f40dbdd9d66d94dbcc837b4f05fec04e26adcfa47264f973235ad41bed0029",
  "source": "/**\n * @title DIP Token Generating Event\n * @dev The Decentralized Insurance Platform Token.\n * @author Christoph Mussenbrock\n * @copyright 2017 Etherisc GmbH\n */\n\npragma solidity 0.4.24;\n\n\nimport 'zeppelin-solidity/contracts/math/SafeMath.sol';\nimport 'zeppelin-solidity/contracts/crowdsale/Crowdsale.sol';\nimport 'zeppelin-solidity/contracts/ownership/Ownable.sol';\n\n\ncontract DipWhitelistedCrowdsale is Ownable {\n  using SafeMath for uint256;\n\n  struct ContributorData {\n    uint256 allowance;\n    uint256 contributionAmount;\n    uint256 tokensIssued;\n    bool airdrop;\n    uint256 bonus;        // 0 == 0%, 4 == 25%, 10 == 10%\n    uint256 lockupPeriod; // 0, 1 or 2 (years)\n  }\n\n  mapping (address => ContributorData) public contributorList;\n\n  event Whitelisted(address indexed _contributor, uint256 _allowance, bool _airdrop, uint256 _bonus, uint256 _lockupPeriod);\n\n  /**\n   * Push contributor data to the contract before the crowdsale\n   */\n  function editContributors (\n    address[] _contributorAddresses,\n    uint256[] _contributorAllowance,\n    bool[] _airdrop,\n    uint256[] _bonus,\n    uint256[] _lockupPeriod\n  ) onlyOwner public {\n    // Check if input data is consistent\n    require(\n      _contributorAddresses.length == _contributorAllowance.length &&\n      _contributorAddresses.length == _airdrop.length &&\n      _contributorAddresses.length == _bonus.length &&\n      _contributorAddresses.length == _lockupPeriod.length\n    );\n\n    for (uint256 cnt = 0; cnt < _contributorAddresses.length; cnt = cnt.add(1)) {\n      require(_bonus[cnt] == 0 || _bonus[cnt] == 4 || _bonus[cnt] == 10);\n      require(_lockupPeriod[cnt] <= 2);\n\n      address contributor = _contributorAddresses[cnt];\n      contributorList[contributor].allowance = _contributorAllowance[cnt];\n      contributorList[contributor].airdrop = _airdrop[cnt];\n      contributorList[contributor].bonus = _bonus[cnt];\n      contributorList[contributor].lockupPeriod = _lockupPeriod[cnt];\n\n      emit Whitelisted(\n        _contributorAddresses[cnt],\n        _contributorAllowance[cnt],\n        _airdrop[cnt],\n        _bonus[cnt],\n        _lockupPeriod[cnt]\n      );\n    }\n  }\n\n}\n",
  "sourcePath": "/Users/kanstantsin/Projects/Altoros/1244_etherisc/tokensale/contracts/tokensale/DipWhitelistedCrowdsale.sol",
  "compiler": {
    "name": "solc",
    "version": "0.4.24+commit.e67f0147.Emscripten.clang"
  },
  "schemaVersion": "2.0.1",
  "updatedAt": "2018-06-22T16:17:30.689Z"
}