{
  "contractName": "RSCConversion",
  "abi": [
    {
      "constant": true,
      "inputs": [],
      "name": "owner",
      "outputs": [
        {
          "name": "",
          "type": "address"
        }
      ],
      "payable": false,
      "stateMutability": "view",
      "type": "function"
    },
    {
      "constant": false,
      "inputs": [
        {
          "name": "newOwner",
          "type": "address"
        }
      ],
      "name": "transferOwnership",
      "outputs": [],
      "payable": false,
      "stateMutability": "nonpayable",
      "type": "function"
    },
    {
      "inputs": [
        {
          "name": "_dipToken",
          "type": "address"
        },
        {
          "name": "_rscToken",
          "type": "address"
        },
        {
          "name": "_lockInTime1",
          "type": "uint256"
        }
      ],
      "payable": false,
      "stateMutability": "nonpayable",
      "type": "constructor"
    },
    {
      "anonymous": false,
      "inputs": [
        {
          "indexed": false,
          "name": "_rscAmount",
          "type": "uint256"
        },
        {
          "indexed": false,
          "name": "_dipAmount",
          "type": "uint256"
        }
      ],
      "name": "Conversion",
      "type": "event"
    },
    {
      "anonymous": false,
      "inputs": [
        {
          "indexed": false,
          "name": "_rscAmount",
          "type": "uint256"
        },
        {
          "indexed": false,
          "name": "_dipAmount",
          "type": "uint256"
        }
      ],
      "name": "Conversion_with_bonus",
      "type": "event"
    },
    {
      "anonymous": false,
      "inputs": [
        {
          "indexed": false,
          "name": "_beneficiary",
          "type": "address"
        },
        {
          "indexed": false,
          "name": "_dipAmount",
          "type": "uint256"
        }
      ],
      "name": "Unlocked",
      "type": "event"
    },
    {
      "anonymous": false,
      "inputs": [
        {
          "indexed": true,
          "name": "previousOwner",
          "type": "address"
        },
        {
          "indexed": true,
          "name": "newOwner",
          "type": "address"
        }
      ],
      "name": "OwnershipTransferred",
      "type": "event"
    },
    {
      "constant": false,
      "inputs": [
        {
          "name": "_rscAmount",
          "type": "uint256"
        }
      ],
      "name": "convert",
      "outputs": [
        {
          "name": "_dipAmount",
          "type": "uint256"
        }
      ],
      "payable": false,
      "stateMutability": "nonpayable",
      "type": "function"
    },
    {
      "constant": false,
      "inputs": [
        {
          "name": "_rscAmount",
          "type": "uint256"
        }
      ],
      "name": "convert_with_bonus",
      "outputs": [
        {
          "name": "_dipAmount",
          "type": "uint256"
        }
      ],
      "payable": false,
      "stateMutability": "nonpayable",
      "type": "function"
    },
    {
      "constant": false,
      "inputs": [],
      "name": "unlock",
      "outputs": [],
      "payable": false,
      "stateMutability": "nonpayable",
      "type": "function"
    },
    {
      "constant": false,
      "inputs": [
        {
          "name": "_beneficiary",
          "type": "address"
        }
      ],
      "name": "unlockFor",
      "outputs": [],
      "payable": false,
      "stateMutability": "nonpayable",
      "type": "function"
    },
    {
      "constant": false,
      "inputs": [],
      "name": "reclaimUnusedBonus",
      "outputs": [],
      "payable": false,
      "stateMutability": "nonpayable",
      "type": "function"
    }
  ],
  "bytecode": "0x608060405234801561001057600080fd5b50604051606080610a2183398101604090815281516020830151919092015160008054600160a060020a0319908116331790915560018054600160a060020a03958616908316179055600280549490931693169290921790556003556109a68061007b6000396000f3006080604052600436106100825763ffffffff7c0100000000000000000000000000000000000000000000000000000000600035041663485757d581146100875780634d4f65c61461009e5780638da5cb5b146100c8578063a3908e1b146100f9578063a69df4b514610111578063dde4997914610126578063f2fde38b14610147575b600080fd5b34801561009357600080fd5b5061009c610168565b005b3480156100aa57600080fd5b506100b660043561038b565b60408051918252519081900360200190f35b3480156100d457600080fd5b506100dd6104b3565b60408051600160a060020a039092168252519081900360200190f35b34801561010557600080fd5b506100b66004356104c2565b34801561011d57600080fd5b5061009c610652565b34801561013257600080fd5b5061009c600160a060020a036004351661075a565b34801561015357600080fd5b5061009c600160a060020a0360043516610892565b60008054600160a060020a0316331461018057600080fd5b60035442101561018f57600080fd5b600254604080517f70a0823100000000000000000000000000000000000000000000000000000000815230600482015290516102fd9261025f9260209261025392600a9261024792600160a060020a03909216916370a082319160248082019289929091908290030181600087803b15801561020a57600080fd5b505af115801561021e573d6000803e3d6000fd5b505050506040513d602081101561023457600080fd5b5051631312cfff9063ffffffff61092616565b9063ffffffff61093816565b9063ffffffff61096316565b600154604080517f70a082310000000000000000000000000000000000000000000000000000000081523060048201529051600160a060020a03909216916370a08231916024808201926020929091908290030181600087803b1580156102c557600080fd5b505af11580156102d9573d6000803e3d6000fd5b505050506040513d60208110156102ef57600080fd5b50519063ffffffff61092616565b600154600080546040805160e060020a63a9059cbb028152600160a060020a03928316600482015260248101869052905194955092169263a9059cbb926044808201936020939283900390910190829087803b15801561035c57600080fd5b505af1158015610370573d6000803e3d6000fd5b505050506040513d602081101561038657600080fd5b505050565b600354600090421061039c57600080fd5b600254604080517f23b872dd000000000000000000000000000000000000000000000000000000008152336004820152306024820152604481018590529051600160a060020a03909216916323b872dd916064808201926020929091908290030181600087803b15801561040f57600080fd5b505af1158015610423573d6000803e3d6000fd5b505050506040513d602081101561043957600080fd5b5051151561044657600080fd5b61045d61014061025384607d63ffffffff61093816565b33600090815260046020908152604091829020839055815185815290810183905281519293507f93f6b2fd57c3cec33e90ab2b7b5e312e355edd5734270ea10bbaad01fbb49e72929081900390910190a1919050565b600054600160a060020a031681565b600254604080517f23b872dd000000000000000000000000000000000000000000000000000000008152336004820152306024820152604481018490529051600092600160a060020a0316916323b872dd91606480830192602092919082900301818787803b15801561053457600080fd5b505af1158015610548573d6000803e3d6000fd5b505050506040513d602081101561055e57600080fd5b5051151561056b57600080fd5b610581602061025384600a63ffffffff61093816565b6001546040805160e060020a63a9059cbb028152336004820152602481018490529051929350600160a060020a039091169163a9059cbb916044808201926020929091908290030181600087803b1580156105db57600080fd5b505af11580156105ef573d6000803e3d6000fd5b505050506040513d602081101561060557600080fd5b5051151561061257600080fd5b604080518381526020810183905281517f54ca022dc56dd7944b989c49ee3426b8b152a77d8ea19c1cb18f5893bd373e3b929181900390910190a1919050565b60035460009042101561066457600080fd5b503360009081526004602052604081205490811161068157600080fd5b336000818152600460208181526040808420849055600154815160e060020a63a9059cbb028152938401959095526024830186905251600160a060020a039094169363a9059cbb936044808501948390030190829087803b1580156106e557600080fd5b505af11580156106f9573d6000803e3d6000fd5b505050506040513d602081101561070f57600080fd5b5051151561071c57600080fd5b604080513381526020810183905281517f0f0bc5b519ddefdd8e5f9e6423433aa2b869738de2ae34d58ebc796fc749fa0d929181900390910190a150565b60008054600160a060020a0316331461077257600080fd5b60035442101561078157600080fd5b50600160a060020a0381166000908152600460205260408120549081116107a757600080fd5b600160a060020a038083166000818152600460208181526040808420849055600154815160e060020a63a9059cbb028152938401959095526024830187905251939094169363a9059cbb9360448084019492939192918390030190829087803b15801561081357600080fd5b505af1158015610827573d6000803e3d6000fd5b505050506040513d602081101561083d57600080fd5b5051151561084a57600080fd5b60408051600160a060020a03841681526020810183905281517f0f0bc5b519ddefdd8e5f9e6423433aa2b869738de2ae34d58ebc796fc749fa0d929181900390910190a15050565b600054600160a060020a031633146108a957600080fd5b600160a060020a03811615156108be57600080fd5b60008054604051600160a060020a03808516939216917f8be0079c531659141344cd1fd0a4f28419497f9722a3daafe3b4186f6b6457e091a36000805473ffffffffffffffffffffffffffffffffffffffff1916600160a060020a0392909216919091179055565b60008282111561093257fe5b50900390565b6000828202831580610954575082848281151561095157fe5b04145b151561095c57fe5b9392505050565b600080828481151561097157fe5b049493505050505600a165627a7a72305820a92a965eb7d1217d976b62bfa12fc39318376acd4144ade8c37050ae9d173bf10029",
  "source": "/**\n * @title RSC Conversion Contract\n * @dev The Decentralized Insurance Platform Token.\n * @author Christoph Mussenbrock\n * @copyright 2017 Etherisc GmbH\n */\n\npragma solidity 0.4.24;\n\nimport \"../token/DipToken.sol\";\nimport \"zeppelin-solidity/contracts/ownership/Ownable.sol\";\nimport \"zeppelin-solidity/contracts/math/SafeMath.sol\";\nimport \"zeppelin-solidity/contracts/token/ERC20.sol\";\n\n\ncontract RSCConversion is Ownable {\n\n  using SafeMath for *;\n\n  DipToken DIP;\n  ERC20 RSC;\n  uint256 lockInTime1;\n  uint256 constant TotalRSCSupply = 319999999; // TODO: insert exact number\n\n  mapping(address => uint256) lockedTokens;\n\n  event Conversion(uint256 _rscAmount, uint256 _dipAmount);\n  event Conversion_with_bonus(uint256 _rscAmount, uint256 _dipAmount);\n  event Unlocked(address _beneficiary, uint256 _dipAmount);\n\n  constructor (address _dipToken, address _rscToken, uint256 _lockInTime1) public {\n    DIP = DipToken(_dipToken);\n    RSC = ERC20(_rscToken);\n    lockInTime1 = _lockInTime1;\n  }\n\n\n  function convert(uint256 _rscAmount) public returns(uint256 _dipAmount) {\n    require(RSC.transferFrom(msg.sender, this, _rscAmount));\n    _dipAmount = _rscAmount.mul(10).div(32);\n    require(DIP.transfer(msg.sender, _dipAmount));\n    emit Conversion(_rscAmount, _dipAmount);\n  }\n\n  function convert_with_bonus(uint256 _rscAmount) public returns(uint256 _dipAmount) {\n    require(now < lockInTime1);\n    require(RSC.transferFrom(msg.sender, this, _rscAmount));\n    _dipAmount = _rscAmount.mul(125).div(320);\n    lockedTokens[msg.sender] = _dipAmount;\n    emit Conversion_with_bonus(_rscAmount, _dipAmount);\n  }\n\n  function unlock() public {\n    uint256 amount;\n    require(now >= lockInTime1);\n    amount = lockedTokens[msg.sender];\n    require(amount > 0);\n    lockedTokens[msg.sender] = 0;\n    require(DIP.transfer(msg.sender, amount));\n    emit Unlocked(msg.sender, amount);\n  }\n\n  function unlockFor(address _beneficiary) public onlyOwner {\n    require(now >= lockInTime1);\n    uint256 amount = lockedTokens[_beneficiary];\n    require(amount > 0);\n    lockedTokens[_beneficiary] = 0;\n    require(DIP.transfer(_beneficiary, amount));\n    emit Unlocked(_beneficiary, amount);\n  }\n\n  function reclaimUnusedBonus() public onlyOwner {\n    require(now >= lockInTime1);\n    uint256 unusedBonus =\n    DIP.balanceOf(this)\n    .sub(TotalRSCSupply\n    .sub(RSC.balanceOf(this))\n    .mul(10)\n      .div(32)\n    );\n    DIP.transfer(owner, unusedBonus);\n  }\n\n}\n",
  "sourcePath": "/Users/kanstantsin/Projects/Altoros/1244_etherisc/tokensale/contracts/rscconversion/RSCConversion.sol",
  "compiler": {
    "name": "solc",
    "version": "0.4.24+commit.e67f0147.Emscripten.clang"
  },
  "schemaVersion": "2.0.1",
  "updatedAt": "2018-06-22T16:17:30.681Z"
}