{
  "contractName": "TokenStake",
  "abi": [
    {
      "constant": true,
      "inputs": [
        {
          "name": "",
          "type": "address"
        }
      ],
      "name": "staked",
      "outputs": [
        {
          "name": "",
          "type": "uint256"
        }
      ],
      "payable": false,
      "stateMutability": "view",
      "type": "function"
    },
    {
      "inputs": [
        {
          "name": "_token",
          "type": "address"
        }
      ],
      "payable": false,
      "stateMutability": "nonpayable",
      "type": "constructor"
    },
    {
      "anonymous": false,
      "inputs": [
        {
          "indexed": false,
          "name": "_staker",
          "type": "address"
        },
        {
          "indexed": false,
          "name": "_value",
          "type": "uint256"
        }
      ],
      "name": "Staked",
      "type": "event"
    },
    {
      "anonymous": false,
      "inputs": [
        {
          "indexed": false,
          "name": "_beneficiary",
          "type": "address"
        },
        {
          "indexed": false,
          "name": "_value",
          "type": "uint256"
        }
      ],
      "name": "Released",
      "type": "event"
    },
    {
      "constant": false,
      "inputs": [
        {
          "name": "_staker",
          "type": "address"
        },
        {
          "name": "_value",
          "type": "uint256"
        }
      ],
      "name": "stakeFor",
      "outputs": [
        {
          "name": "",
          "type": "bool"
        }
      ],
      "payable": false,
      "stateMutability": "nonpayable",
      "type": "function"
    },
    {
      "constant": false,
      "inputs": [
        {
          "name": "_value",
          "type": "uint256"
        }
      ],
      "name": "stake",
      "outputs": [
        {
          "name": "",
          "type": "bool"
        }
      ],
      "payable": false,
      "stateMutability": "nonpayable",
      "type": "function"
    }
  ],
  "bytecode": "0x608060405234801561001057600080fd5b50604051602080610308833981016040525160008054600160a060020a03909216600160a060020a03199092169190911790556102b6806100526000396000f3006080604052600436106100565763ffffffff7c01000000000000000000000000000000000000000000000000000000006000350416632ee40908811461005b57806398807d84146100a0578063a694fc3a146100e0575b600080fd5b34801561006757600080fd5b5061008c73ffffffffffffffffffffffffffffffffffffffff600435166024356100f8565b604080519115158252519081900360200190f35b3480156100ac57600080fd5b506100ce73ffffffffffffffffffffffffffffffffffffffff60043516610256565b60408051918252519081900360200190f35b3480156100ec57600080fd5b5061008c600435610268565b60008054604080517f23b872dd00000000000000000000000000000000000000000000000000000000815233600482015230602482015260448101859052905173ffffffffffffffffffffffffffffffffffffffff909216916323b872dd9160648082019260209290919082900301818787803b15801561017857600080fd5b505af115801561018c573d6000803e3d6000fd5b505050506040513d60208110156101a257600080fd5b50511561024c5773ffffffffffffffffffffffffffffffffffffffff83166000908152600160205260409020546101df908363ffffffff61027416565b73ffffffffffffffffffffffffffffffffffffffff841660008181526001602090815260409182902093909355805191825291810184905281517f9e71bc8eea02a63969f509818f2dafb9254532904319f9dbda79b67bd34a5f3d929181900390910190a1506001610250565b5060005b92915050565b60016020526000908152604090205481565b600061025033836100f8565b60008282018381101561028357fe5b93925050505600a165627a7a72305820f4baddb3f30092a8f3c3b3cc1aafe9292b34414465fa541c57a5848ddf8adcc70029",
  "source": "/**\n * @title Generic Token Staking Contract\n * @dev The Decentralized Insurance Platform Token.\n * @author Christoph Mussenbrock\n * @copyright 2017 Etherisc GmbH\n */\n\npragma solidity ^0.4.15;\n\nimport \"zeppelin-solidity/contracts/math/SafeMath.sol\";\nimport \"zeppelin-solidity/contracts/token/StandardToken.sol\";\n\n/**\n * TokenStake Contract.\n * This contract has to be extended to be useful, as\n * the release functions are internal.\n * We expect the owner of this contract to check if the used token\n * is not an \"attacking\" token.\n */\ncontract TokenStake {\n\n  using SafeMath for uint256;\n\n  StandardToken token;\n  mapping (address => uint256) public staked;\n\n  event Staked(address _staker, uint256 _value);\n  event Released(address _beneficiary, uint256 _value);\n\n  constructor(StandardToken _token) public {\n    token = _token;\n  }\n\n  // requires approval of token transfer before calling this function\n  function stakeFor(address _staker, uint256 _value) public returns (bool) {\n    if (token.transferFrom(msg.sender, address(this), _value)) {\n      staked[_staker] = staked[_staker].add(_value);\n      emit Staked(_staker, _value);\n      return true;\n    } else {\n      return false;\n    }\n  }\n\n  function stake(uint256 _value) public returns (bool) {\n    return stakeFor(msg.sender, _value);\n  }\n\n  function releaseFor(address _beneficiary, uint256 _value) internal returns (bool) {\n    staked[msg.sender].sub(_value); // will throw if _value > staked[_staker]\n    if (token.transfer(_beneficiary, _value)) {\n      emit Released(_beneficiary, _value);\n      return true;\n    } else {\n      staked[msg.sender].add(_value);\n      return false;\n    }\n  }\n\n  function release(uint256 _value) internal returns (bool) {\n    return releaseFor(msg.sender, _value);\n  }\n\n}\n",
  "sourcePath": "/Users/kanstantsin/Projects/Altoros/1244_etherisc/tokensale/contracts/protocol/TokenStake.sol",
  "compiler": {
    "name": "solc",
    "version": "0.4.24+commit.e67f0147.Emscripten.clang"
  },
  "schemaVersion": "2.0.1",
  "updatedAt": "2018-06-22T16:17:30.680Z"
}